{
  "_format": "hh-sol-artifact-1",
  "contractName": "BlockchainBetBrasilV3",
  "sourceName": "contracts/BlockchainBetBrasilV3.sol",
  "abi": [
    {
      "inputs": [
        {
          "internalType": "address",
          "name": "_stablecoin",
          "type": "address"
        },
        {
          "internalType": "address",
          "name": "_vrfCoordinator",
          "type": "address"
        },
        {
          "internalType": "uint64",
          "name": "_subscriptionId",
          "type": "uint64"
        },
        {
          "internalType": "bytes32",
          "name": "_keyHash",
          "type": "bytes32"
        }
      ],
      "stateMutability": "nonpayable",
      "type": "constructor"
    },
    {
      "inputs": [],
      "name": "ReentrancyGuardReentrantCall",
      "type": "error"
    },
    {
      "anonymous": false,
      "inputs": [
        {
          "indexed": true,
          "internalType": "address",
          "name": "jogador",
          "type": "address"
        },
        {
          "indexed": false,
          "internalType": "uint256",
          "name": "valor",
          "type": "uint256"
        }
      ],
      "name": "BonusConcedido",
      "type": "event"
    },
    {
      "anonymous": false,
      "inputs": [
        {
          "indexed": true,
          "internalType": "address",
          "name": "jogador",
          "type": "address"
        }
      ],
      "name": "FreeAplicacaoConcedida",
      "type": "event"
    },
    {
      "anonymous": false,
      "inputs": [
        {
          "indexed": true,
          "internalType": "uint256",
          "name": "rodadaId",
          "type": "uint256"
        },
        {
          "indexed": true,
          "internalType": "address",
          "name": "jogador",
          "type": "address"
        },
        {
          "indexed": false,
          "internalType": "uint256[5]",
          "name": "prognosticos",
          "type": "uint256[5]"
        }
      ],
      "name": "NovaAplicacaoFeita",
      "type": "event"
    },
    {
      "anonymous": false,
      "inputs": [
        {
          "indexed": true,
          "internalType": "uint256",
          "name": "rodadaId",
          "type": "uint256"
        },
        {
          "indexed": false,
          "internalType": "uint256",
          "name": "timestamp",
          "type": "uint256"
        }
      ],
      "name": "NovaRodadaIniciada",
      "type": "event"
    },
    {
      "anonymous": false,
      "inputs": [
        {
          "indexed": true,
          "internalType": "address",
          "name": "jogador",
          "type": "address"
        },
        {
          "indexed": false,
          "internalType": "uint256",
          "name": "valor",
          "type": "uint256"
        }
      ],
      "name": "PremioRecebido",
      "type": "event"
    },
    {
      "anonymous": false,
      "inputs": [
        {
          "indexed": true,
          "internalType": "uint256",
          "name": "rodadaId",
          "type": "uint256"
        },
        {
          "indexed": true,
          "internalType": "address",
          "name": "jogador",
          "type": "address"
        },
        {
          "indexed": false,
          "internalType": "uint256",
          "name": "valor",
          "type": "uint256"
        }
      ],
      "name": "PremioReivindicado",
      "type": "event"
    },
    {
      "anonymous": false,
      "inputs": [
        {
          "indexed": true,
          "internalType": "uint256",
          "name": "rodadaId",
          "type": "uint256"
        },
        {
          "indexed": false,
          "internalType": "uint256[5]",
          "name": "resultados",
          "type": "uint256[5]"
        }
      ],
      "name": "ResultadosProcessados",
      "type": "event"
    },
    {
      "inputs": [],
      "name": "BONUS_ZERO_PONTOS",
      "outputs": [
        {
          "internalType": "uint256",
          "name": "",
          "type": "uint256"
        }
      ],
      "stateMutability": "view",
      "type": "function"
    },
    {
      "inputs": [],
      "name": "MAX_APLICACOES_POR_RODADA",
      "outputs": [
        {
          "internalType": "uint256",
          "name": "",
          "type": "uint256"
        }
      ],
      "stateMutability": "view",
      "type": "function"
    },
    {
      "inputs": [],
      "name": "PRECO_APLICACAO",
      "outputs": [
        {
          "internalType": "uint256",
          "name": "",
          "type": "uint256"
        }
      ],
      "stateMutability": "view",
      "type": "function"
    },
    {
      "inputs": [],
      "name": "TAXA_PLATAFORMA_PERCENTUAL",
      "outputs": [
        {
          "internalType": "uint256",
          "name": "",
          "type": "uint256"
        }
      ],
      "stateMutability": "view",
      "type": "function"
    },
    {
      "inputs": [],
      "name": "abrirRodada",
      "outputs": [],
      "stateMutability": "nonpayable",
      "type": "function"
    },
    {
      "inputs": [],
      "name": "aplicacoesParaFreeAplicacao",
      "outputs": [
        {
          "internalType": "uint256",
          "name": "",
          "type": "uint256"
        }
      ],
      "stateMutability": "view",
      "type": "function"
    },
    {
      "inputs": [
        {
          "internalType": "address",
          "name": "",
          "type": "address"
        }
      ],
      "name": "aplicacoesZeroPontos",
      "outputs": [
        {
          "internalType": "uint256",
          "name": "",
          "type": "uint256"
        }
      ],
      "stateMutability": "view",
      "type": "function"
    },
    {
      "inputs": [
        {
          "internalType": "uint256[5]",
          "name": "_prognosticos",
          "type": "uint256[5]"
        }
      ],
      "name": "aplicar",
      "outputs": [],
      "stateMutability": "nonpayable",
      "type": "function"
    },
    {
      "inputs": [
        {
          "internalType": "address",
          "name": "",
          "type": "address"
        }
      ],
      "name": "bonusAcumulados",
      "outputs": [
        {
          "internalType": "uint256",
          "name": "",
          "type": "uint256"
        }
      ],
      "stateMutability": "view",
      "type": "function"
    },
    {
      "inputs": [],
      "name": "bonusZeroPontos",
      "outputs": [
        {
          "internalType": "uint256",
          "name": "",
          "type": "uint256"
        }
      ],
      "stateMutability": "view",
      "type": "function"
    },
    {
      "inputs": [
        {
          "internalType": "address",
          "name": "",
          "type": "address"
        }
      ],
      "name": "freeAplicacoesConcedidas",
      "outputs": [
        {
          "internalType": "uint256",
          "name": "",
          "type": "uint256"
        }
      ],
      "stateMutability": "view",
      "type": "function"
    },
    {
      "inputs": [
        {
          "internalType": "address",
          "name": "jogador",
          "type": "address"
        }
      ],
      "name": "getStatusJogador",
      "outputs": [
        {
          "internalType": "uint256",
          "name": "bonusAcumulado",
          "type": "uint256"
        },
        {
          "internalType": "uint256",
          "name": "freeAplicacoesDisponiveis",
          "type": "uint256"
        },
        {
          "internalType": "uint256",
          "name": "totalAplicacoesZeroPontos",
          "type": "uint256"
        },
        {
          "internalType": "uint256",
          "name": "premiosRecebidos",
          "type": "uint256"
        }
      ],
      "stateMutability": "view",
      "type": "function"
    },
    {
      "inputs": [],
      "name": "owner",
      "outputs": [
        {
          "internalType": "address",
          "name": "",
          "type": "address"
        }
      ],
      "stateMutability": "view",
      "type": "function"
    },
    {
      "inputs": [],
      "name": "pause",
      "outputs": [],
      "stateMutability": "nonpayable",
      "type": "function"
    },
    {
      "inputs": [],
      "name": "paused",
      "outputs": [
        {
          "internalType": "bool",
          "name": "",
          "type": "bool"
        }
      ],
      "stateMutability": "view",
      "type": "function"
    },
    {
      "inputs": [
        {
          "internalType": "uint256",
          "name": "",
          "type": "uint256"
        }
      ],
      "name": "percentuaisPremio",
      "outputs": [
        {
          "internalType": "uint256",
          "name": "",
          "type": "uint256"
        }
      ],
      "stateMutability": "view",
      "type": "function"
    },
    {
      "inputs": [
        {
          "internalType": "uint256",
          "name": "_rodadaId",
          "type": "uint256"
        }
      ],
      "name": "reivindicarPremio",
      "outputs": [],
      "stateMutability": "nonpayable",
      "type": "function"
    },
    {
      "inputs": [],
      "name": "rodadaAtualId",
      "outputs": [
        {
          "internalType": "uint256",
          "name": "",
          "type": "uint256"
        }
      ],
      "stateMutability": "view",
      "type": "function"
    },
    {
      "inputs": [
        {
          "internalType": "uint256",
          "name": "",
          "type": "uint256"
        }
      ],
      "name": "rodadas",
      "outputs": [
        {
          "internalType": "uint256",
          "name": "id",
          "type": "uint256"
        },
        {
          "internalType": "enum BlockchainBetBrasilV3.StatusRodada",
          "name": "status",
          "type": "uint8"
        },
        {
          "internalType": "uint256",
          "name": "totalArrecadado",
          "type": "uint256"
        },
        {
          "internalType": "uint256",
          "name": "premioTotal",
          "type": "uint256"
        },
        {
          "internalType": "bool",
          "name": "resultadosForamInseridos",
          "type": "bool"
        },
        {
          "internalType": "uint256",
          "name": "timestampAbertura",
          "type": "uint256"
        },
        {
          "internalType": "uint256",
          "name": "timestampFechamentoAplicacoes",
          "type": "uint256"
        },
        {
          "internalType": "uint256",
          "name": "timestampResultadosProcessados",
          "type": "uint256"
        },
        {
          "internalType": "uint256",
          "name": "s_requestId",
          "type": "uint256"
        },
        {
          "internalType": "uint256",
          "name": "poteAcumulado",
          "type": "uint256"
        }
      ],
      "stateMutability": "view",
      "type": "function"
    },
    {
      "inputs": [
        {
          "internalType": "uint256",
          "name": "_novoBonus",
          "type": "uint256"
        },
        {
          "internalType": "uint256",
          "name": "_novoLimiteFreeAplicacao",
          "type": "uint256"
        }
      ],
      "name": "setConfiguracoesBonus",
      "outputs": [],
      "stateMutability": "nonpayable",
      "type": "function"
    },
    {
      "inputs": [],
      "name": "stablecoin",
      "outputs": [
        {
          "internalType": "contract IERC20",
          "name": "",
          "type": "address"
        }
      ],
      "stateMutability": "view",
      "type": "function"
    },
    {
      "inputs": [
        {
          "internalType": "address",
          "name": "",
          "type": "address"
        }
      ],
      "name": "totalPremiosRecebidos",
      "outputs": [
        {
          "internalType": "uint256",
          "name": "",
          "type": "uint256"
        }
      ],
      "stateMutability": "view",
      "type": "function"
    },
    {
      "inputs": [],
      "name": "unpause",
      "outputs": [],
      "stateMutability": "nonpayable",
      "type": "function"
    }
  ],
  "bytecode": "0x6101a06040526032610100908152601461012052600f61014052600a61016052600561018081905261003391600b91610101565b5034801561004057600080fd5b50604051610d5a380380610d5a83398101604081905261005f91610175565b600080546001600160a01b0319163317815562098968600190815560086002819055556001600160a01b0394851660e052929093166080526001600160401b031660a05260c091909152808052600a6020527f13da86008ba1c6922daee3e07db95305ef49ebced9f5467a0b8613fcc6b343e3557f13da86008ba1c6922daee3e07db95305ef49ebced9f5467a0b8613fcc6b343e4805460ff191690556101cf565b8260058101928215610134579160200282015b82811115610134578251829060ff16905591602001919060010190610114565b50610140929150610144565b5090565b5b808211156101405760008155600101610145565b80516001600160a01b038116811461017057600080fd5b919050565b6000806000806080858703121561018b57600080fd5b61019485610159565b93506101a260208601610159565b60408601519093506001600160401b03811681146101bf57600080fd5b6060959095015193969295505050565b60805160a05160c05160e051610b54610206600039600081816103ab01526105660152600050506000505060005050610b546000f3fe608060405234801561001057600080fd5b506004361061014d5760003560e01c80638da5cb5b116100c3578063ab8fa0811161007c578063ab8fa0811461036d578063bf6eb7fa1461038d578063d974a8c914610396578063e1cb96871461039e578063e9cbd822146103a6578063eb4e4bb8146103cd57600080fd5b80638da5cb5b1461029257806393e7bc0d146102bd57806396f3215e146102c757806398e33758146102e75780639b982ea1146102f05780639de82e171461030357600080fd5b80634cf3b971116101155780634cf3b971146102345780635c975abb1461023d5780636d5c01bb1461025a578063793e97df14610264578063844a23cc146102775780638456cb591461028a57600080fd5b806314ba1c261461015257806319e227781461016e5780633651b76b146101ea578063397ec3761461020a5780633f4ba83a1461022a575b600080fd5b61015b60095481565b6040519081526020015b60405180910390f35b6101d461017c36600461096d565b600a60205260009081526040902080546001820154600283015460038401546005850154600d860154600e870154600f8801546010890154601290990154979860ff978816989697959694909516949293919290918a565b6040516101659a9998979695949392919061099c565b61015b6101f8366004610a06565b60066020526000908152604090205481565b61015b610218366004610a06565b60036020526000908152604090205481565b6102326103e0565b005b61015b60025481565b60075461024a9060ff1681565b6040519015158152602001610165565b61015b6209896881565b610232610272366004610a36565b61041f565b610232610285366004610a5e565b61076b565b6102326107a0565b6000546102a5906001600160a01b031681565b6040516001600160a01b039091168152602001610165565b61015b624c4b4081565b61015b6102d5366004610a06565b60056020526000908152604090205481565b61015b61271081565b6102326102fe36600461096d565b6107d9565b61034d610311366004610a06565b6001600160a01b031660009081526003602090815260408083205460048352818420546005845282852054600690945291909320549293909290565b604080519485526020850193909352918301526060820152608001610165565b61015b61037b366004610a06565b60046020526000908152604090205481565b61015b60015481565b6102326107ee565b61015b600581565b6102a57f000000000000000000000000000000000000000000000000000000000000000081565b61015b6103db36600461096d565b6108d9565b6000546001600160a01b031633146104135760405162461bcd60e51b815260040161040a90610a80565b60405180910390fd5b6007805460ff19169055565b60075460ff16156104655760405162461bcd60e51b815260206004820152601060248201526f436f6e747261746f207061757361646f60801b604482015260640161040a565b6009546000908152600a6020526040902060018082015460ff16600581111561049057610490610986565b146104d65760405162461bcd60e51b8152602060048201526016602482015275526f64616461206e616f20657374612061626572746160501b604482015260640161040a565b60048101546127101161052b5760405162461bcd60e51b815260206004820152601d60248201527f4c696d6974652064652061706c696361636f6573206174696e6769646f000000604482015260640161040a565b33600090815260046020526040902054151580610621576040516323b872dd60e01b8152336004820152306024820152624c4b4060448201527f00000000000000000000000000000000000000000000000000000000000000006001600160a01b0316906323b872dd906064016020604051808303816000875af11580156105b7573d6000803e3d6000fd5b505050506040513d601f19601f820116820180604052508101906105db9190610aa7565b61061c5760405162461bcd60e51b815260206004820152601260248201527146616c6861206e6f20706167616d656e746f60701b604482015260640161040a565b610642565b33600090815260046020526040812080549161063c83610adf565b91905055505b60408051608081018252338152815160a0818101909352600485019260208301919087906005908390839080828437600092019190915250505081526020018361068f57624c4b40610692565b60005b81526000602091820181905283546001808201865594825290829020835160089092020180546001600160a01b0319166001600160a01b0390921691909117815590820151919290916106e991830190600561091a565b50604082015181600601556060820151816007015550508061072257624c4b4082600201600082825461071c9190610af6565b90915550505b336001600160a01b03166009547f6fffd7ba89519e1d1e5b045c1b784b6e17f3f6d4e084620d5594a9968e8213898560405161075e9190610b0f565b60405180910390a3505050565b6000546001600160a01b031633146107955760405162461bcd60e51b815260040161040a90610a80565b600191909155600255565b6000546001600160a01b031633146107ca5760405162461bcd60e51b815260040161040a90610a80565b6007805460ff19166001179055565b6107e16108f0565b6107eb6001600855565b50565b6000546001600160a01b031633146108185760405162461bcd60e51b815260040161040a90610a80565b6009546000908152600a6020526040812090600182015460ff16600581111561084357610843610986565b146108875760405162461bcd60e51b8152602060048201526014602482015273526f64616461206a61206573746120617469766160601b604482015260640161040a565b6001818101805460ff1916909117905542600d8201819055600954604051918252907fafe0f6d56154eb95afafb28739bee6ccdedc7b58fda32adbd89285289d62a8f89060200160405180910390a250565b600b81600581106108e957600080fd5b0154905081565b60026008540361091357604051633ee5aeb560e01b815260040160405180910390fd5b6002600855565b8260058101928215610948579160200282015b8281111561094857825182559160200191906001019061092d565b50610954929150610958565b5090565b5b808211156109545760008155600101610959565b60006020828403121561097f57600080fd5b5035919050565b634e487b7160e01b600052602160045260246000fd5b8a8152610140810160068b106109c257634e487b7160e01b600052602160045260246000fd5b602082019a909a5260408101989098526060880196909652931515608087015260a086019290925260c085015260e084015261010083015261012090910152919050565b600060208284031215610a1857600080fd5b81356001600160a01b0381168114610a2f57600080fd5b9392505050565b600060a08284031215610a4857600080fd5b8260a083011115610a5857600080fd5b50919050565b60008060408385031215610a7157600080fd5b50508035926020909101359150565b6020808252600d908201526c29b7b6b2b73a329037bbb732b960991b604082015260600190565b600060208284031215610ab957600080fd5b81518015158114610a2f57600080fd5b634e487b7160e01b600052601160045260246000fd5b600081610aee57610aee610ac9565b506000190190565b80820180821115610b0957610b09610ac9565b92915050565b60a0818101908383379291505056fea264697066735822122004ed0e7aedee9274b87e920eb43bfef6f1f578e8855ab6cbd380379d6c52b6e964736f6c63430008180033",
  "linkReferences": {},
  "deployedLinkReferences": {}
}